{
  "contractName": "Banking",
  "abi": [
    {
      "inputs": [],
      "payable": false,
      "stateMutability": "nonpayable",
      "type": "constructor"
    },
    {
      "anonymous": false,
      "inputs": [
        {
          "indexed": false,
          "internalType": "uint256",
          "name": "_serialNumber",
          "type": "uint256"
        },
        {
          "indexed": false,
          "internalType": "bytes32",
          "name": "_name",
          "type": "bytes32"
        },
        {
          "indexed": false,
          "internalType": "bytes32",
          "name": "_location",
          "type": "bytes32"
        },
        {
          "indexed": false,
          "internalType": "uint256",
          "name": "_createdAt",
          "type": "uint256"
        },
        {
          "indexed": false,
          "internalType": "uint256",
          "name": "_balance",
          "type": "uint256"
        }
      ],
      "name": "AccountCreated",
      "type": "event"
    },
    {
      "anonymous": false,
      "inputs": [
        {
          "indexed": false,
          "internalType": "uint256",
          "name": "_amount",
          "type": "uint256"
        },
        {
          "indexed": false,
          "internalType": "uint256",
          "name": "_transacNumber",
          "type": "uint256"
        },
        {
          "indexed": false,
          "internalType": "uint256",
          "name": "_currentAccountSerial",
          "type": "uint256"
        },
        {
          "indexed": false,
          "internalType": "bytes32",
          "name": "_transactionType",
          "type": "bytes32"
        }
      ],
      "name": "TransactionCompleted",
      "type": "event"
    },
    {
      "constant": true,
      "inputs": [
        {
          "internalType": "uint256",
          "name": "",
          "type": "uint256"
        }
      ],
      "name": "accounts",
      "outputs": [
        {
          "internalType": "uint256",
          "name": "serial",
          "type": "uint256"
        },
        {
          "internalType": "uint256",
          "name": "createdAt",
          "type": "uint256"
        },
        {
          "internalType": "string",
          "name": "name",
          "type": "string"
        },
        {
          "internalType": "string",
          "name": "location",
          "type": "string"
        },
        {
          "internalType": "address",
          "name": "creator",
          "type": "address"
        },
        {
          "internalType": "uint256",
          "name": "balance",
          "type": "uint256"
        },
        {
          "internalType": "bool",
          "name": "doesExist",
          "type": "bool"
        }
      ],
      "payable": false,
      "stateMutability": "view",
      "type": "function"
    },
    {
      "constant": true,
      "inputs": [],
      "name": "bankBalance",
      "outputs": [
        {
          "internalType": "uint256",
          "name": "",
          "type": "uint256"
        }
      ],
      "payable": false,
      "stateMutability": "view",
      "type": "function"
    },
    {
      "constant": true,
      "inputs": [],
      "name": "serialNumber",
      "outputs": [
        {
          "internalType": "uint256",
          "name": "",
          "type": "uint256"
        }
      ],
      "payable": false,
      "stateMutability": "view",
      "type": "function"
    },
    {
      "constant": true,
      "inputs": [],
      "name": "transacNum",
      "outputs": [
        {
          "internalType": "uint256",
          "name": "",
          "type": "uint256"
        }
      ],
      "payable": false,
      "stateMutability": "view",
      "type": "function"
    },
    {
      "constant": true,
      "inputs": [
        {
          "internalType": "uint256",
          "name": "",
          "type": "uint256"
        }
      ],
      "name": "transactions",
      "outputs": [
        {
          "internalType": "uint256",
          "name": "transacNum",
          "type": "uint256"
        },
        {
          "internalType": "uint256",
          "name": "currentBalance",
          "type": "uint256"
        },
        {
          "internalType": "uint256",
          "name": "amountTransacted",
          "type": "uint256"
        },
        {
          "internalType": "uint256",
          "name": "createdAt",
          "type": "uint256"
        },
        {
          "internalType": "string",
          "name": "transacType",
          "type": "string"
        },
        {
          "internalType": "uint256",
          "name": "accountSerialNumber",
          "type": "uint256"
        }
      ],
      "payable": false,
      "stateMutability": "view",
      "type": "function"
    },
    {
      "constant": false,
      "inputs": [
        {
          "internalType": "address payable",
          "name": "_creator",
          "type": "address"
        },
        {
          "internalType": "string",
          "name": "_name",
          "type": "string"
        },
        {
          "internalType": "string",
          "name": "_location",
          "type": "string"
        }
      ],
      "name": "createAccount",
      "outputs": [],
      "payable": true,
      "stateMutability": "payable",
      "type": "function"
    },
    {
      "constant": false,
      "inputs": [
        {
          "internalType": "uint256",
          "name": "_serial",
          "type": "uint256"
        },
        {
          "internalType": "uint256",
          "name": "_amount",
          "type": "uint256"
        },
        {
          "internalType": "address payable",
          "name": "_creator",
          "type": "address"
        }
      ],
      "name": "addBalance",
      "outputs": [],
      "payable": true,
      "stateMutability": "payable",
      "type": "function"
    },
    {
      "constant": false,
      "inputs": [
        {
          "internalType": "uint256",
          "name": "_serial",
          "type": "uint256"
        },
        {
          "internalType": "uint256",
          "name": "_amount",
          "type": "uint256"
        },
        {
          "internalType": "address payable",
          "name": "_creator",
          "type": "address"
        }
      ],
      "name": "withdrawBalance",
      "outputs": [
        {
          "internalType": "bool",
          "name": "_success",
          "type": "bool"
        }
      ],
      "payable": false,
      "stateMutability": "nonpayable",
      "type": "function"
    },
    {
      "constant": false,
      "inputs": [
        {
          "internalType": "uint256",
          "name": "_amount",
          "type": "uint256"
        },
        {
          "internalType": "uint256",
          "name": "_serial_2",
          "type": "uint256"
        },
        {
          "internalType": "uint256",
          "name": "_serial",
          "type": "uint256"
        }
      ],
      "name": "transactAmount",
      "outputs": [],
      "payable": false,
      "stateMutability": "nonpayable",
      "type": "function"
    },
    {
      "constant": true,
      "inputs": [
        {
          "internalType": "uint256",
          "name": "_serial",
          "type": "uint256"
        }
      ],
      "name": "getBalance",
      "outputs": [
        {
          "internalType": "uint256",
          "name": "",
          "type": "uint256"
        }
      ],
      "payable": false,
      "stateMutability": "view",
      "type": "function"
    },
    {
      "constant": true,
      "inputs": [
        {
          "internalType": "address payable",
          "name": "_account",
          "type": "address"
        }
      ],
      "name": "getSenderBalance",
      "outputs": [
        {
          "internalType": "uint256",
          "name": "",
          "type": "uint256"
        }
      ],
      "payable": false,
      "stateMutability": "view",
      "type": "function"
    },
    {
      "constant": true,
      "inputs": [],
      "name": "getContractBalance",
      "outputs": [
        {
          "internalType": "uint256",
          "name": "",
          "type": "uint256"
        }
      ],
      "payable": false,
      "stateMutability": "view",
      "type": "function"
    },
    {
      "constant": true,
      "inputs": [],
      "name": "getOwner",
      "outputs": [
        {
          "internalType": "address",
          "name": "",
          "type": "address"
        }
      ],
      "payable": false,
      "stateMutability": "view",
      "type": "function"
    }
  ],
  "bytecode": "0x608060405260008055600060015560006002553480156200001f57600080fd5b506040518060e00160405280600081526020014281526020016040518060400160405280600881526020017f446f74536c61736800000000000000000000000000000000000000000000000081525081526020016040518060400160405280600d81526020017f53564e4954202c2053555241540000000000000000000000000000000000000081525081526020013073ffffffffffffffffffffffffffffffffffffffff168152602001600081526020016001151581525060036000808152602001908152602001600020600082015181600001556020820151816001015560408201518160020190805190602001906200011d929190620001b7565b5060608201518160030190805190602001906200013c929190620001b7565b5060808201518160040160006101000a81548173ffffffffffffffffffffffffffffffffffffffff021916908373ffffffffffffffffffffffffffffffffffffffff16021790555060a0820151816005015560c08201518160060160006101000a81548160ff02191690831515021790555090505062000266565b828054600181600116156101000203166002900490600052602060002090601f016020900481019282601f10620001fa57805160ff19168380011785556200022b565b828001600101855582156200022b579182015b828111156200022a5782518255916020019190600101906200020d565b5b5090506200023a91906200023e565b5090565b6200026391905b808211156200025f57600081600090555060010162000245565b5090565b90565b6117c680620002766000396000f3fe6080604052600436106100c25760003560e01c80636f9fb98a1161007f5780639ace38c2116100595780639ace38c21461043f578063e15cdcc414610516578063f2a40db81461056e578063fb3d4771146106e1576100c2565b80636f9fb98a146103585780637cfa4dbc14610383578063893d20e8146103e8576100c2565b80631e010439146100c757806328657aa5146101165780632a0daeea146101415780633bd8b71d1461016c5780634dbe4454146101bb5780636b17aa831461032d575b600080fd5b3480156100d357600080fd5b50610100600480360360208110156100ea57600080fd5b810190808035906020019092919050505061075e565b6040518082815260200191505060405180910390f35b34801561012257600080fd5b5061012b610783565b6040518082815260200191505060405180910390f35b34801561014d57600080fd5b50610156610789565b6040518082815260200191505060405180910390f35b34801561017857600080fd5b506101b96004803603606081101561018f57600080fd5b8101908080359060200190929190803590602001909291908035906020019092919050505061078f565b005b61032b600480360360608110156101d157600080fd5b81019080803573ffffffffffffffffffffffffffffffffffffffff1690602001909291908035906020019064010000000081111561020e57600080fd5b82018360208201111561022057600080fd5b8035906020019184600183028401116401000000008311171561024257600080fd5b91908080601f016020809104026020016040519081016040528093929190818152602001838380828437600081840152601f19601f820116905080830192505050505050509192919290803590602001906401000000008111156102a557600080fd5b8201836020820111156102b757600080fd5b803590602001918460018302840111640100000000831117156102d957600080fd5b91908080601f016020809104026020016040519081016040528093929190818152602001838380828437600081840152601f19601f820116905080830192505050505050509192919290505050610bb2565b005b34801561033957600080fd5b50610342610ee4565b6040518082815260200191505060405180910390f35b34801561036457600080fd5b5061036d610eea565b6040518082815260200191505060405180910390f35b34801561038f57600080fd5b506103d2600480360360208110156103a657600080fd5b81019080803573ffffffffffffffffffffffffffffffffffffffff169060200190929190505050610ef2565b6040518082815260200191505060405180910390f35b3480156103f457600080fd5b506103fd610f13565b604051808273ffffffffffffffffffffffffffffffffffffffff1673ffffffffffffffffffffffffffffffffffffffff16815260200191505060405180910390f35b34801561044b57600080fd5b506104786004803603602081101561046257600080fd5b8101908080359060200190929190505050610f1b565b6040518087815260200186815260200185815260200184815260200180602001838152602001828103825284818151815260200191508051906020019080838360005b838110156104d65780820151818401526020810190506104bb565b50505050905090810190601f1680156105035780820380516001836020036101000a031916815260200191505b5097505050505050505060405180910390f35b61056c6004803603606081101561052c57600080fd5b810190808035906020019092919080359060200190929190803573ffffffffffffffffffffffffffffffffffffffff169060200190929190505050610fef565b005b34801561057a57600080fd5b506105a76004803603602081101561059157600080fd5b8101908080359060200190929190505050611277565b6040518088815260200187815260200180602001806020018673ffffffffffffffffffffffffffffffffffffffff1673ffffffffffffffffffffffffffffffffffffffff16815260200185815260200184151515158152602001838103835288818151815260200191508051906020019080838360005b8381101561063957808201518184015260208101905061061e565b50505050905090810190601f1680156106665780820380516001836020036101000a031916815260200191505b50838103825287818151815260200191508051906020019080838360005b8381101561069f578082015181840152602081019050610684565b50505050905090810190601f1680156106cc5780820380516001836020036101000a031916815260200191505b50995050505050505050505060405180910390f35b3480156106ed57600080fd5b506107446004803603606081101561070457600080fd5b810190808035906020019092919080359060200190929190803573ffffffffffffffffffffffffffffffffffffffff169060200190929190505050611416565b604051808215151515815260200191505060405180910390f35b6000806003600084815260200190815260200160002060050154905080915050919050565b60025481565b60005481565b6001670de0b6b3a764000084816107a257fe5b0401600360008381526020019081526020016000206005015410610b3f57670de0b6b3a764000083816107d157fe5b046003600083815260200190815260200160002060050160008282540392505081905550670de0b6b3a7640000838161080657fe5b0460036000848152602001908152602001600020600501600082825401925050819055506001600081548092919060010191905055507f30bf4b72d8fd6ed273a42c7d6387deb12830c381458996419db8c925535c17bf670de0b6b3a7640000848161086e57fe5b0460015460005460405180848152602001838152602001828152602001807f5472616e736665724d6f6e657953656e74000000000000000000000000000000815250602001935050505060405180910390a16040518060c00160405280600154815260200160036000848152602001908152602001600020600501548152602001670de0b6b3a7640000858161090057fe5b0481526020014281526020016040518060400160405280601181526020017f5472616e736665724d6f6e657953656e740000000000000000000000000000008152508152602001828152506004600060015481526020019081526020016000206000820151816000015560208201518160010155604082015181600201556060820151816003015560808201518160040190805190602001906109a49291906116ec565b5060a082015181600501559050506001600081548092919060010191905055507f30bf4b72d8fd6ed273a42c7d6387deb12830c381458996419db8c925535c17bf670de0b6b3a764000084816109f657fe5b0460015460005460405180848152602001838152602001828152602001807f5472616e736665724d6f6e657952656365697665640000000000000000000000815250602001935050505060405180910390a16040518060c00160405280600154815260200160036000858152602001908152602001600020600501548152602001670de0b6b3a76400008581610a8857fe5b0481526020014281526020016040518060400160405280601581526020017f5472616e736665724d6f6e657952656365697665640000000000000000000000815250815260200183815250600460006001548152602001908152602001600020600082015181600001556020820151816001015560408201518160020155606082015181600301556080820151816004019080519060200190610b2c9291906116ec565b5060a08201518160050155905050610bad565b6040517f08c379a00000000000000000000000000000000000000000000000000000000081526004018080602001828103825260128152602001807f496e73756666696369656e742046756e6473000000000000000000000000000081525060200191505060405180910390fd5b505050565b60038373ffffffffffffffffffffffffffffffffffffffff163110610e715760008081548092919060010191905055506040518060e0016040528060005481526020014281526020018381526020018281526020018473ffffffffffffffffffffffffffffffffffffffff1681526020016002815260200160011515815250600360008054815260200190815260200160002060008201518160000155602082015181600101556040820151816002019080519060200190610c759291906116ec565b506060820151816003019080519060200190610c929291906116ec565b5060808201518160040160006101000a81548173ffffffffffffffffffffffffffffffffffffffff021916908373ffffffffffffffffffffffffffffffffffffffff16021790555060a0820151816005015560c08201518160060160006101000a81548160ff021916908315150217905550905050600280600082825401925050819055506001600081548092919060010191905055506040518060c00160405280600154815260200160028152602001600281526020014281526020016040518060400160405280600a81526020017f4e65774163636f756e74000000000000000000000000000000000000000000008152508152602001600054815250600460006001548152602001908152602001600020600082015181600001556020820151816001015560408201518160020155606082015181600301556080820151816004019080519060200190610dea9291906116ec565b5060a082015181600501559050507f30bf4b72d8fd6ed273a42c7d6387deb12830c381458996419db8c925535c17bf600260015460005460405180848152602001838152602001828152602001807f4e65774163636f756e7400000000000000000000000000000000000000000000815250602001935050505060405180910390a1610edf565b6040517f08c379a00000000000000000000000000000000000000000000000000000000081526004018080602001828103825260128152602001807f496e73756666696369656e742046756e6473000000000000000000000000000081525060200191505060405180910390fd5b505050565b60015481565b600047905090565b60008173ffffffffffffffffffffffffffffffffffffffff16319050919050565b600033905090565b6004602052806000526040600020600091509050806000015490806001015490806002015490806003015490806004018054600181600116156101000203166002900480601f016020809104026020016040519081016040528092919081815260200182805460018160011615610100020316600290048015610fdf5780601f10610fb457610100808354040283529160200191610fdf565b820191906000526020600020905b815481529060010190602001808311610fc257829003601f168201915b5050505050908060050154905086565b6001670de0b6b3a7640000838161100257fe5b04018173ffffffffffffffffffffffffffffffffffffffff16311061120457670de0b6b3a7640000828161103257fe5b046003600085815260200190815260200160002060050160008282540192505081905550670de0b6b3a7640000828161106757fe5b046002600082825401925050819055506001600081548092919060010191905055506040518060c00160405280600154815260200160036000868152602001908152602001600020600501548152602001670de0b6b3a764000084816110c957fe5b0481526020014281526020016040518060400160405280600d81526020017f416464696e6742616c616e63650000000000000000000000000000000000000081525081526020018481525060046000600154815260200190815260200160002060008201518160000155602082015181600101556040820151816002015560608201518160030155608082015181600401908051906020019061116d9291906116ec565b5060a082015181600501559050507f30bf4b72d8fd6ed273a42c7d6387deb12830c381458996419db8c925535c17bf670de0b6b3a764000083816111ad57fe5b0460015460005460405180848152602001838152602001828152602001807f416464696e6742616c616e636500000000000000000000000000000000000000815250602001935050505060405180910390a1611272565b6040517f08c379a00000000000000000000000000000000000000000000000000000000081526004018080602001828103825260128152602001807f496e73756666696369656e742046756e6473000000000000000000000000000081525060200191505060405180910390fd5b505050565b6003602052806000526040600020600091509050806000015490806001015490806002018054600181600116156101000203166002900480601f01602080910402602001604051908101604052809291908181526020018280546001816001161561010002031660029004801561132f5780601f106113045761010080835404028352916020019161132f565b820191906000526020600020905b81548152906001019060200180831161131257829003601f168201915b505050505090806003018054600181600116156101000203166002900480601f0160208091040260200160405190810160405280929190818152602001828054600181600116156101000203166002900480156113cd5780601f106113a2576101008083540402835291602001916113cd565b820191906000526020600020905b8154815290600101906020018083116113b057829003601f168201915b5050505050908060040160009054906101000a900473ffffffffffffffffffffffffffffffffffffffff16908060050154908060060160009054906101000a900460ff16905087565b60006001670de0b6b3a7640000848161142b57fe5b0401600360008681526020019081526020016000206005015410611677578173ffffffffffffffffffffffffffffffffffffffff166108fc849081150290604051600060405180830381858888f1935050505015801561148f573d6000803e3d6000fd5b50670de0b6b3a764000083816114a157fe5b046003600086815260200190815260200160002060050160008282540392505081905550670de0b6b3a764000083816114d657fe5b046002600082825403925050819055506001600081548092919060010191905055506040518060c00160405280600154815260200160036000878152602001908152602001600020600501548152602001670de0b6b3a7640000858161153857fe5b0481526020014281526020016040518060400160405280600a81526020017f5769746864726177616c000000000000000000000000000000000000000000008152508152602001858152506004600060015481526020019081526020016000206000820151816000015560208201518160010155604082015181600201556060820151816003015560808201518160040190805190602001906115dc9291906116ec565b5060a082015181600501559050507f30bf4b72d8fd6ed273a42c7d6387deb12830c381458996419db8c925535c17bf670de0b6b3a7640000848161161c57fe5b0460015460005460405180848152602001838152602001828152602001807f5769746864726177616c00000000000000000000000000000000000000000000815250602001935050505060405180910390a1600190506116e5565b6040517f08c379a00000000000000000000000000000000000000000000000000000000081526004018080602001828103825260128152602001807f496e73756666696369656e742046756e6473000000000000000000000000000081525060200191505060405180910390fd5b9392505050565b828054600181600116156101000203166002900490600052602060002090601f016020900481019282601f1061172d57805160ff191683800117855561175b565b8280016001018555821561175b579182015b8281111561175a57825182559160200191906001019061173f565b5b509050611768919061176c565b5090565b61178e91905b8082111561178a576000816000905550600101611772565b5090565b9056fea265627a7a723158209642698bf96cbe34b0bf2f1dcf7ddd5bd91c5aaae810dc87a84de2645435e60c64736f6c63430005100032",
  "source": "// SPDX-License-Identifier: MIT\r\npragma solidity >=0.4.21 < 0.7.0;\r\n\r\ncontract Banking {\r\n\r\n    uint256 public serialNumber = 0;\r\n    uint256 public transacNum = 0;\r\n    uint256 public bankBalance = 0;\r\n\r\n    struct Account {\r\n        uint256 serial;\r\n        uint256 createdAt;\r\n        string name;\r\n        string location;\r\n        address creator;\r\n        uint256 balance;\r\n        bool doesExist;\r\n    }\r\n\r\n    constructor() public {\r\n        accounts[0] = Account(\r\n            0,\r\n            block.timestamp,\r\n            \"DotSlash\",\r\n            \"SVNIT , SURAT\",\r\n            address(this),\r\n            0,\r\n            true\r\n        );\r\n    }\r\n    struct Transaction {\r\n        uint256 transacNum;\r\n        uint256 currentBalance;\r\n        uint256 amountTransacted;\r\n        uint256 createdAt;\r\n        string transacType;\r\n        uint256 accountSerialNumber;\r\n    }\r\n\r\n    mapping(uint256 => Account) public accounts;\r\n    mapping(uint256 => Transaction) public transactions;\r\n    event AccountCreated(\r\n        uint256 _serialNumber,\r\n        bytes32 _name,\r\n        bytes32 _location,\r\n        uint256 _createdAt,\r\n        uint256 _balance\r\n    );\r\n\r\n    event TransactionCompleted(\r\n        uint256 _amount,\r\n        uint256 _transacNumber,\r\n        uint256 _currentAccountSerial,\r\n        bytes32 _transactionType\r\n    );\r\n\r\n    function createAccount(\r\n        address payable _creator,\r\n        string memory _name,\r\n        string memory _location\r\n    ) public payable {\r\n        if (_creator.balance >= 3) {\r\n            serialNumber++;\r\n            accounts[serialNumber] = Account(\r\n                serialNumber,\r\n                block.timestamp,\r\n                _name,\r\n                _location,\r\n                _creator,\r\n                2,\r\n                true\r\n            );\r\n            bankBalance += 2;\r\n            transacNum++;\r\n            transactions[transacNum] = Transaction(\r\n                transacNum,\r\n                2,\r\n                2,\r\n                block.timestamp,\r\n                \"NewAccount\",\r\n                serialNumber\r\n            );\r\n            emit TransactionCompleted(\r\n                2,\r\n                transacNum,\r\n                serialNumber,\r\n                \"NewAccount\"\r\n            );\r\n        } else {\r\n            revert(\"Insufficient Funds\");\r\n        }\r\n    }\r\n\r\n    function addBalance(\r\n        uint256 _serial,\r\n        uint256 _amount,\r\n        address payable _creator\r\n    ) public payable {\r\n        if (_creator.balance >= _amount / 1000000000000000000 + 1) {\r\n            accounts[_serial].balance += _amount / 1000000000000000000;\r\n            bankBalance += _amount / 1000000000000000000;\r\n            transacNum++;\r\n\r\n            transactions[transacNum] = Transaction(\r\n                transacNum,\r\n                accounts[_serial].balance,\r\n                _amount / 1000000000000000000,\r\n                block.timestamp,\r\n                \"AddingBalance\",\r\n                _serial\r\n            );\r\n\r\n            emit TransactionCompleted(\r\n                _amount / 1000000000000000000,\r\n                transacNum,\r\n                serialNumber,\r\n                \"AddingBalance\"\r\n            );\r\n        } else {\r\n            revert(\"Insufficient Funds\");\r\n        }\r\n    }\r\n\r\n\r\n    function withdrawBalance(\r\n        uint256 _serial,\r\n        uint256 _amount,\r\n        address payable _creator\r\n    ) \r\n    external returns (bool _success) {\r\n        if (accounts[_serial].balance >= _amount / 1000000000000000000 + 1) {\r\n            _creator.transfer(_amount);\r\n            accounts[_serial].balance -= _amount / 1000000000000000000;\r\n            bankBalance -= _amount / 1000000000000000000;\r\n            transacNum++;\r\n            transactions[transacNum] = Transaction(\r\n                transacNum,\r\n                accounts[_serial].balance,\r\n                _amount / 1000000000000000000,\r\n                block.timestamp,\r\n                \"Withdrawal\",\r\n                _serial\r\n            );\r\n            emit TransactionCompleted(\r\n                _amount / 1000000000000000000,\r\n                transacNum,\r\n                serialNumber,\r\n                \"Withdrawal\"\r\n            );\r\n            return true;\r\n        } else {\r\n            revert(\"Insufficient Funds\");\r\n        }\r\n    }\r\n\r\n    function transactAmount(\r\n        uint256 _amount,\r\n        uint256 _serial_2,\r\n        uint256 _serial\r\n    ) public {\r\n        if (accounts[_serial].balance >= _amount / 1000000000000000000 + 1) {\r\n            accounts[_serial].balance -= _amount / 1000000000000000000;\r\n            accounts[_serial_2].balance += _amount / 1000000000000000000;\r\n            transacNum++;\r\n            emit TransactionCompleted(\r\n                _amount / 1000000000000000000,\r\n                transacNum,\r\n                serialNumber,\r\n                \"TransferMoneySent\"\r\n            );\r\n            transactions[transacNum] = Transaction(\r\n                transacNum,\r\n                accounts[_serial].balance,\r\n                _amount / 1000000000000000000,\r\n                block.timestamp,\r\n                \"TransferMoneySent\",\r\n                _serial\r\n            );\r\n            transacNum++;\r\n            emit TransactionCompleted(\r\n                _amount / 1000000000000000000,\r\n                transacNum,\r\n                serialNumber,\r\n                \"TransferMoneyReceived\"\r\n            );\r\n            transactions[transacNum] = Transaction(\r\n                transacNum,\r\n                accounts[_serial_2].balance,\r\n                _amount / 1000000000000000000,\r\n                block.timestamp,\r\n                \"TransferMoneyReceived\",\r\n                _serial_2\r\n            );\r\n        } else {\r\n            revert(\"Insufficient Funds\");\r\n        }\r\n    }\r\n    function getBalance(uint256 _serial) public view returns (uint256) {\r\n        uint256 bal = accounts[_serial].balance;\r\n        return bal;\r\n    }\r\n\r\n    function getSenderBalance(address payable _account)\r\n        external\r\n        view\r\n        returns (uint256)\r\n    {\r\n        return _account.balance;\r\n    }\r\n    function getContractBalance() external view returns (uint256) {\r\n        return address(this).balance;\r\n    }\r\n    function getOwner() public view returns (address) {\r\n        return msg.sender;\r\n    }\r\n}",
  "sourcePath": "C:\\Users\\kirti\\OneDrive\\Desktop\\svnit\\Aatmanirbhar-Bank-DotSlash-\\contracts\\Banking.sol",
  "compiler": {
    "name": "solc",
    "version": "0.5.16+commit.9c3226ce.Emscripten.clang"
  },
  "schemaVersion": "3.4.11",
  "updatedAt": "2023-02-19T05:09:13.349Z",
  "networkType": "ethereum",
  "devdoc": {
    "methods": {}
  },
  "userdoc": {
    "methods": {}
  }
}